:060000000A128A110C280F
:10000800FE00030EF1000A08F2000A128A111528F0
:100018000A128A110F28F801F90183010A128A11BC
:100028005F28831203138C1D1A281B2858281412C2
:1000380083160313941A21282228312814192528F5
:1000480026283128141C29282A2826288312031335
:100058001308F0007008F900141683160313941E91
:1000680036283728462814193A283B284628141CCD
:100078003E283F283B28831203131308F00070081A
:10008800F80014168312141B4A284B284F28941F73
:100098004E284F285728831603131410831203136E
:1000A8001413941314168C1172088A00710E8300AD
:1000B800FE0E7E0E09000A128A118E200A128A117B
:1000C80078280130831203138500782802308312C0
:1000D80003138500782808308312031385007828D5
:1000E8000B308312031385007808F600F7017708B0
:1000F800003A0319802874287608013A03196528FC
:10010800033A03196A28013A03196F2874280A1256
:100118008A110C2883160317890188018316031393
:10012800870185018312031385018701F301F30A0F
:1001380006300A128A11C4200A128A1140300A12A3
:100148008A11B0200A128A118B170B170A128A110A
:10015800D5200A128A110800F300831603138715A5
:100168000716730893008312031394161408F039C2
:1001780006389400141683160313941711140800F4
:10018800F500730C83160313031C0F1003180F14C8
:100198007508F400F40E0F0874068F3974068F0082
:1001A8000800831603138C15831203138C1108009F
:04400E00D420FF3F7C
:00000001FF
