:060000000A128A110C280F
:10000800FE00030EF1000A08F2000A128A11362DCA
:100018000A128A110F2883120313B801B901BA0111
:10002800BB01BC01BD01BE01BF01C00183010A12B1
:100038008A111E280A128A1133230A128A110130E2
:1000480083120313AF002F08BC0704303C02031CC3
:100058002E282F283128BC01BC0A0A128A11B7257C
:100068000A128A1140300A128A11A3250A128A112B
:10007800831203133C080A128A11A3250A128A1153
:100088000A128A11AE250A128A114130831203130B
:10009800B000ED30AF00AF0B4F28B00B4F285428FD
:1000A8000A128A11B7250A128A11F301F30A4F308E
:1000B8000A128A1122250A128A11F301F30A3D3025
:1000C8000A128A1187240A128A110A128A11AE2585
:1000D8000A128A11413083120313B000ED30AF00C9
:1000E800AF0B7428B00B74287928831203133D08CA
:1000F800AF00B0012F08A4003008A5003E30B100C1
:100108003108A6003F30B2003208A7004030B300E3
:100118003308A8000A128A112A210A128A1100300B
:1001280083120313B7000030B6000030B50000306A
:10013800B4003E08303EAF002F08B4003F08303E00
:10014800AF002F08B5004008303EAF002F08B600BA
:10015800B7010A128A110D250A128A1100300A12F3
:100168008A114A250A128A110130F7008030F800F6
:100178000A128A11F8230A128A1140300A128A11C7
:100188004A250A128A113430F7000030F8000A12A2
:100198008A11F8230A128A112B30F7008030F800F0
:1001A8000A128A11F8230A128A1102292630F70046
:1001B8008030F8000A128A11F8230A128A111729C6
:1001C8001130F7008030F8000A128A11F8230A1259
:1001D8008A1117292030F7008030F8000A128A1196
:1001E800F8230A128A1117291A30F7008030F8000C
:1001F8000A128A11F8230A128A1117298312031383
:100208003C08AF00B0013008003A03190C29F8285F
:100218002F08013A0319DA28033A0319E428013AA6
:100228000319EE28F828033083120313B1000830AD
:10023800B0007630AF00AF0B1F29B00B1F29B10BF0
:100248001F29000023280A128A110C286430F300A1
:100258000030F400831203132508F6002408F50083
:100268000A128A11DA220A128A11740883120313F5
:10027800AC007308AB002C082506031D45292B0884
:100288002406031D482949294E292608840083137A
:10029800800168296430F3000030F4002B08240240
:1002A800F5002C08031C2C0A2502F6000A128A11F4
:1002B800AB210A128A117308FA0083120313260865
:1002C80084007A08831380000A30F3000030F400B9
:1002D8002C08F6002B08F5000A128A11DA220A12F5
:1002E8008A11740883120313AA007308A9002A0844
:1002F8002C06031D812929082B06031D842985291D
:100308008A292708840083138001A4290A30F3006E
:100318000030F40029082B02F5002A08031C2A0AD9
:100328002C02F6000A128A11AB210A128A117308EC
:10033800FA0083120313270884007A0883138000C5
:100348002908FA00280884007A0880000800831227
:100358000313A101F41FB129B229B929F309F4093A
:10036800F30A0319F40AA101A10AF61FBC29BD2941
:10037800C629F509F609F50A0319F60A0130F70046
:100388007708A106A201A301730874040319CD29F3
:10039800CE29052AA001A00ADC2901300310F30D9B
:1003A800F40DFF3E031DD2290130F7007708A0079E
:1003B800F41FDF29E029D12901300310A20DA30D74
:1003C800FF3E031DE12974087602031DED29730819
:1003D8007502031CF029F129F8297308F50274083D
:1003E800031CF603F602221401300310F40CF30C7C
:1003F800FF3E031DF9290130A002031D042A052A26
:10040800E02921080319092A0A2A0F2AA209A3099F
:10041800A20A0319A30A2308F4002208F30008001B
:10042800003083120313A4000030A3000030A200A0
:100438000030A10076087504740473040319252A92
:10044800262A732AA501A50A362A0130A00003101E
:10045800F30DF40DF50DF60DA00B2B2A0130A000BD
:100468002008A507F61F392A3A2A292A0130A000B0
:100478000310A10DA20DA30DA40DA00B3C2A760814
:100488007A02031D512A75087902031D512A74083E
:100498007802031D512A73087702031C542A552A2F
:1004A800642A7308F7027408031C740FF8027508AD
:1004B800031C750FF9027608031C760FFA02211443
:1004C80001300310F60CF50CF40CF30CFF3E031D81
:1004D800652A0130A502031D722A732A3A2A2408C4
:1004E800F6002308F5002208F4002108F3000800AC
:1004F800063083120313A2001330A100AD30A00010
:10050800A00B842AA10B842AA20B842AF401F501EA
:1005180001300A128A112C240A128A110D30831212
:100528000313A100FB30A000A00B982AA10B982A66
:10053800F401F50101300A128A112C240A128A11D9
:10054800633083120313A000A00BA82AF401F5015D
:1005580001300A128A112C240A128A11F401F40AB1
:10056800F50101300A128A112C240A128A11F401A9
:10057800F50100300A128A11D0240A128A110A12CF
:100588008A110D250A128A11F40101300A128A1102
:10059800F1240A128A11F401F40AF501F50A01306E
:1005A8000A128A11D0240A128A110800F901F61FCA
:1005B800DE2ADF2AE62AF509F609F50A0319F60AFA
:1005C800F901F90AF41FE92AEA2AEF2AF309F409DA
:1005D800F30A0319F40A730874040319F42AF52AB0
:1005E800242BF801F80A032B01300310F30DF40D46
:1005F800FF3E031DF92A0130F7007708F807F41FBA
:10060800062B072BF82A74087602031D0D2B730896
:100618007502031C102B112B172B7308F502740895
:10062800031CF603F60201300310F40CF30CFF3E32
:10063800031D182B0130F802031D232B242B072B35
:1006480079080319282B292B2E2BF509F609F50A09
:100658000319F60A7608F4007508F30008008316F3
:100668000317890188018316031385018601870111
:100678008801831203138501860187018801F3012C
:10068800F30A06300A128A115C250A128A11F3014C
:10069800F30A083083120313AE002E08F400013069
:1006A8000A128A115D240A128A1100308312031378
:1006B800A9000130A8008630A700A030A6000A12C1
:1006C8008A11C0230A128A118B170B170A128A1172
:1006D800C0250A128A110A128A117C220A128A116A
:1006E8000130F7008030F8000A128A11F8230A1244
:1006F8008A1183120313BC01BD010800FF1B8C2B58
:1007080083137F1883170008840A0319FF0A080057
:1007180003308A000408840A82070034543465349C
:100728006D3470343A342034533465346D34613464
:1007380066346F3472346F343A34003441346D3473
:100748006134723469346C346C346F340034453439
:10075800523452344F34523400345634653472347F
:1007680064346534003452346F346A346F3400347E
:10077800B034433420340034831603138715071626
:100788008312031394161408F039083894002608C5
:10079800AA002708AB002808AC002908AD000230E1
:1007A8000310AA0DAB0DAC0DAD0DFF3E031DD42BF0
:1007B8002D08F6002C08F5002B08F4002A08F30091
:1007C8000030FA003D30F9000930F8000030F70039
:1007D8000A128A1114220A128A117308FF3E83161C
:1007E800031393009417080083120313A001132C1A
:1007F80020087707840078080318780AFF000A128F
:100808008A1182230A128A110A128A116D250A1284
:100818008A110130F900790883120313A0077708B9
:10082800F3007808F4000A128A11AC240A128A111B
:10083800831203132008F900FA0174087A02031DD1
:10084800272C73087902031C2A2C2B2CFC2B08005C
:10085800FA00831203138812081386017A08F60037
:1008680004300310F60DFF3E031D352C7408F70005
:1008780002300310F70DFF3E031D3D2C0310770DCA
:100888007607F8007508F90001300310F90DFF3EEE
:10089800031D492C0310790D7807203E86000A12A3
:1008A8008A118B250A128A112130F600F60B5A2C70
:1008B8000800F500750C83160313031C18110318A0
:1008C8001815730C83160317031C87110318871553
:1008D8007408831603139900831203139817831659
:1008E8000313181283120313181383160313181310
:1008F80098168312031318160C128C1283160313FE
:10090800871707130800F5000A128A117E250A12B4
:100918008A118316031391150A128A117E250A1269
:100928008A11831203131308F400750884007408ED
:10093800831380000A128A117E250A128A11730C09
:1009480083160313031C911203189116111608003D
:100958007308F5007408F600B72C0130F507031882
:10096800F60A0030F607760883120313FF007508AD
:1009780084000A128A1182230A128A11003A031D7E
:10098800C62CC72CB12C73087502F3007408031C1D
:10099800740A7602F4000800F9008312031388121F
:1009A800081386017908F60002300310F60DFF3EA1
:1009B800031DD92C7408F70077077607F800750827
:1009C8007807083E86000A128A118B250A128A11B6
:1009D8002130F600F60BEE2C0800F6008312031304
:1009E8008812081386017608F50001300310F50D0A
:1009F800FF3E031DFA2C74087507043E86000A1290
:100A08008A118B250A128A112130F500F50B0A2D5F
:100A180008008312031388120813013086000A1293
:100A28008A118B250A128A110330F5009730F400D9
:100A3800F40B1C2DF50B1C2D212D0800F5000A12B6
:100A48008A117E250A128A117508F40001300310F4
:100A5800F40DFF3E031D2B2D730874078312031337
:100A680093000800831203138C1E3B2D3C2D432D4D
:100A78008C123C080A128A1197250A128A117208E8
:100A88008A00710E8300FE0E7E0E0900F5008312A7
:100A98000313881208137508803E86000A128A110B
:100AA8008B250A128A112130F400F40B592D080005
:100AB800F500730C83160313031C0F1003180F148F
:100AC8007508F400F40E0F0874068F3974068F0049
:100AD8000800F500831203138816081375088600AA
:100AE8000A128A118B250A128A112130F400F40B9C
:100AF8007B2D0800831603131419832D842D7E2D56
:100B080011081F39031D892D8A2D7E2D0800831297
:100B180003138817A630F300F30B902D00008312FF
:100B2800031388130800F00083160313981C9D2DE7
:100B38009E2D982D70088312031399000800F30066
:100B48000A128A117E250A128A1173088312031366
:100B5800930008000A128A117E250A128A11831648
:100B68000313111508000A128A117E250A128A1128
:100B78008316031311140800831603138C168312AB
:060B880003138C120800AB
:04400E00D420FF3F7C
:00000001FF
